S013000041546D656761382D5350492E7372656391
S11300002EC048C047C08AC045C044C07DC042C05D
S11300101AC140C03FC03EC03DC03CC0EAC03AC067
S113002039C038C037C0496E697469616C697A69CE
S11300306E6720646F6E652E00496E697469616C29
S1130040697A696E672E2E2E0048656C6C6F2C20C1
S11300504D6567613820616C6976652E0000112456
S11300601FBECFE5D4E0DEBFCDBF10E0A0E6B0E018
S1130070E2E2F5E002C005900D92A639B107D9F786
S113008020E0A6E9B0E001C01D92A13AB207E1F771
S113009099D045C2B5CF8DE287BB85E088BB80E5AA
S11300A08DB98AE18A95F1F700C008958FB9779BDD
S11300B0FECF089581E88FBD89E08EBD89B7846045
S11300C089BFB99A789408958BE085BD89EE83BD84
S11300D089B7806889BF7894089590BD89B98CE107
S11300E08AB986E880BD0895D6DF8CE090E0F5DF1C
S11300F0EBDF08955D9BFECF8CB9089587B966B98F
S113010008958BEE86B908951F920F920FB60F9241
S113011011240F900FBE0F901F9018951F920F92ED
S11301200FB60F9211242F933F934F935F936F93C6
S11301307F938F939F93AF93209196003091970074
S1130140409198005091990060919A0070919B00A1
S113015080919C0090919D00A1E0C9D120939600CC
S113016030939700409398005093990060939A00BD
S113017070939B0080939C0090939D00AF919F91FE
S11301808F917F916F915F914F913F912F910F903C
S11301900FBE0F901F901895CF93DF93EC018DE065
S11301A0A9DF8AE0A7DFFE018491882341F0FE01E4
S11301B08491A0DF2196FE0184918111F8CFDF9113
S11301C0CF91089580E481BB8FDF89E490E0E4DF80
S11301D089E390E0E1DF81E0D7D0811104C080E6BB
S11301E090E0DADFFFCF86E290E0D6DF80919E00D8
S11301F0FDCF1F920F920FB60F9211242F933F93AE
S11302004F935F936F937F938F939F93AF93BF931A
S1130210EF93FF9385B1FDD085B180939F0081E07A
S113022080939E00FF91EF91BF91AF919F918F9129
S11302307F916F915F914F913F912F910F900FBEDE
S11302400F901F9018951F920F920FB60F921124C2
S11302508F9380919F008ABD8F910F900FBE0F9056
S11302601F901895C09822DF8FB1C09A0895AF925D
S1130270BF92CF92DF92EF92FF920F931F93CF938F
S1130280DF93A62EC09812DFAA2019F1C0E0B12C8A
S1130290C12CD12CE12CF12C00E010E0D0E080E066
S11302A005DFEFB12B2D2E2B3C2D4D2D5E2D6F2D0B
S11302B0702F812F9D2F08E0E3D0B22EC32ED42EB1
S11302C0E52EF62E072F182FD92FCF5FCA11E7CFAF
S11302D008C0B12CC12CD12CE12CF12C00E010E091
S11302E0D0E0C09A2B2D3C2D4D2D5E2D6F2D702FFF
S11302F0812F9D2F08E0DFD0DF91CF911F910F91C7
S1130300FF90EF90DF90CF90BF90AF9008959F92B1
S1130310AF92BF92CF92DF92EF92FF920F931F930F
S1130320CF93DF93C22FD32FF42ED52EB62EA72E24
S1130330C0988062BBDE9FB0EE20C1F0C12C802F3C
S1130340B5DE202F312F4C2F5D2F6F2D7D2D8B2D62
S11303509A2D08E0B0D0022F132FC42FD52FF62EDC
S1130360D72EB82EA92EC394CE10E9CFC09A892DCA
S1130370DF91CF911F910F91FF90EF90DF90CF907D
S1130380BF90AF909F900895EF920F931F93CF93D8
S1130390C82F8F9AEE24E39401E010E020E030E0CF
S11303A040E050E060E070E081E1B1DFCC23B1F0E7
S11303B06BEA83E6A3DEA5DE0AE020E030E040E05D
S11303C050E060E070E080E0A2DF61E080E04FDFB9
S11303D0E1E0AAE098D0B9F0E0E015C06BDEEE24CD
S11303E0E3940BE010E020E030E040E050E060E017
S11303F070E080E08CDF61E080E039DFE1E0ABE0D9
S113040082D009F0E0E08E2FCF911F910F91EF90F1
S11304100895EF920F931F93CF93DF931F92CDB75D
S1130420DEB78983C09880EA41DE8FB18093A00053
S113043080FD08C089813ADEC09A92B380E489279E
S113044082BB17C0C09A8091A00084FF0CC0EE2428
S1130450E39400E110E020E030E040E050E060E0B0
S113046070E087E054DF8091A00080FF02C081EE3D
S1130470F9DE0F90DF91CF911F910F91EF900895C6
S11304800F93083090F0982F872F762F652F542FD5
S1130490432F322F22270850F4CF220F331F441F3B
S11304A0551F661F771F881F991F0A95B2F70F9172
S11304B0089597FB10F8169400080F93083098F0ED
S11304C00850232F342F452F562F672F782F892F2D
S11304D0902DF4CF059497958795779567955795C3
S11304E04795379527950A95AAF70F910895002403
S11304F0A7FD00942A0F301D401D501D601D701D66
S1130500801D901D08950024A7FD00942A1730052E
S11305104005500560057005800590050895F89420
S1050520FFCF07
S1130522496E697469616C697A6174696F6E206677
S113053261696C656420666F72206E524632344C77
S113054230312E20436865636B20636F6E6E656382
S109055274696F6E730072
S9030000FC
